{"contracts/Food.sol":{"FoodTraceability":{"abi":[{"anonymous":false,"inputs":[{"indexed":false,"internalType":"string","name":"batchId","type":"string"},{"indexed":false,"internalType":"string","name":"action","type":"string"},{"indexed":false,"internalType":"enum FoodTraceability.Actor","name":"actor","type":"uint8"},{"indexed":false,"internalType":"uint256","name":"timestamp","type":"uint256"}],"name":"RecordAdded","type":"event"},{"inputs":[{"internalType":"string","name":"_batchId","type":"string"},{"internalType":"string","name":"_foodName","type":"string"},{"internalType":"string","name":"_action","type":"string"},{"internalType":"string","name":"_aiResult","type":"string"},{"internalType":"uint256","name":"_confidence","type":"uint256"},{"internalType":"enum FoodTraceability.Actor","name":"_actor","type":"uint8"}],"name":"addRecord","outputs":[],"stateMutability":"nonpayable","type":"function"},{"inputs":[{"internalType":"string","name":"_batchId","type":"string"},{"internalType":"uint256","name":"index","type":"uint256"}],"name":"getRecordByIndex","outputs":[{"internalType":"string","name":"","type":"string"},{"internalType":"string","name":"","type":"string"},{"internalType":"string","name":"","type":"string"},{"internalType":"string","name":"","type":"string"},{"internalType":"uint256","name":"","type":"uint256"},{"internalType":"enum FoodTraceability.Actor","name":"","type":"uint8"},{"internalType":"uint256","name":"","type":"uint256"}],"stateMutability":"view","type":"function"},{"inputs":[{"internalType":"string","name":"_batchId","type":"string"}],"name":"getRecordCount","outputs":[{"internalType":"uint256","name":"","type":"uint256"}],"stateMutability":"view","type":"function"}],"evm":{"bytecode":{"linkReferences":{},"object":"6080806040523461001657610ad7908161001c8239f35b600080fdfe6080604052600436101561001257600080fd5b60003560e01c80636319d03e1461073957806363c992191461009e5763c3cef20a1461003d57600080fd5b34610099576020366003190112610099576004356001600160401b038111610099576100866020610073819336906004016108d8565b816040519382858094519384920161092e565b8101600081520301902054604051908152f35b600080fd5b346100995760c0366003190112610099576004356001600160401b038111610099576100ce9036906004016108d8565b6024356001600160401b038111610099576100ed9036906004016108d8565b6044356001600160401b0381116100995761010c9036906004016108d8565b916064356001600160401b0381116100995761012c9036906004016108d8565b600560a435101561009957604051926101448461089c565b82845260208401528360408401526060830152608435608083015261016e60a43560a08401610983565b4260c08301526040516020818351610189818385880161092e565b810160008152030190208054680100000000000000008110156104a6576101b59160018201815561098f565b9290926107235780518051906001600160401b0382116104a65781906101db86546109c1565b601f81116106d3575b50602090601f83116001146106675760009261065c575b50508160011b916000199060031b1c19161783555b60208101518051906001600160401b0382116104a657819061023560018701546109c1565b601f8111610609575b50602090601f83116001146105975760009261058c575b50508160011b916000199060031b1c19161760018401555b60408101518051906001600160401b0382116104a657819061029260028701546109c1565b601f8111610539575b50602090601f83116001146104c7576000926104bc575b50508160011b916000199060031b1c19161760028401555b60608101518051906001600160401b0382116104a65781906102ef60038701546109c1565b601f8111610453575b50602090601f83116001146103e1576000926103d6575b50508160011b916000199060031b1c19161760038401555b60808101516004840155600583019360a08201519360058510156103c057600660c06103a6947f4a9ceb9aed16e383a67e187387ef295dd0a19ccc1754331e3212eb8c1a1d72c7986103989860ff801983541691161790550151910155604051938493608085526080850190610951565b908382036020850152610951565b6103b56040830160a435610976565b4260608301520390a1005b634e487b7160e01b600052602160045260246000fd5b01519050868061030f565b9250600386016000526020600020906000935b601f1984168510610438576001945083601f1981161061041f575b505050811b016003840155610327565b015160001960f88460031b161c1916905586808061040f565b818101518355602094850194600190930192909101906103f4565b909150600386016000526020600020601f840160051c81016020851061049f575b90849392915b601f830160051c820181106104905750506102f8565b6000815585945060010161047a565b5080610474565b634e487b7160e01b600052604160045260246000fd5b0151905086806102b2565b9250600286016000526020600020906000935b601f198416851061051e576001945083601f19811610610505575b505050811b0160028401556102ca565b015160001960f88460031b161c191690558680806104f5565b818101518355602094850194600190930192909101906104da565b909150600286016000526020600020601f840160051c810160208510610585575b90849392915b601f830160051c8201811061057657505061029b565b60008155859450600101610560565b508061055a565b015190508680610255565b9250600186016000526020600020906000935b601f19841685106105ee576001945083601f198116106105d5575b505050811b01600184015561026d565b015160001960f88460031b161c191690558680806105c5565b818101518355602094850194600190930192909101906105aa565b909150600186016000526020600020601f840160051c810160208510610655575b90849392915b601f830160051c8201811061064657505061023e565b60008155859450600101610630565b508061062a565b0151905086806101fb565b9250856000526020600020906000935b601f19841685106106b8576001945083601f1981161061069f575b505050811b018355610210565b015160001960f88460031b161c19169055868080610692565b81810151835560209485019460019093019290910190610677565b909150856000526020600020601f840160051c81016020851061071c575b90849392915b601f830160051c8201811061070d5750506101e4565b600081558594506001016106f7565b50806106f1565b634e487b7160e01b600052600060045260246000fd5b34610099576040366003190112610099576004356001600160401b0381116100995761076c6107989136906004016108d8565b6020610781604051928381519384920161092e565b81019060008252602081602435930301902061098f565b50604051906107a68261089c565b6107af816109fb565b82526107bd600182016109fb565b90602083019182526107d1600282016109fb565b604084019081526107e4600383016109fb565b936060810194855260048301549460808201958652600660ff6005860154169461081260a085019687610983565b01549160c0810192835251945192519051955193519060058210156103c05761085996610875610883926108676108939651976040519b8c9b60e08d5260e08d0190610951565b908b820360208d0152610951565b9089820360408b0152610951565b908782036060890152610951565b93608086015260a0850190610976565b60c08301520390f35b60e081019081106001600160401b038211176104a657604052565b90601f801991011681019081106001600160401b038211176104a657604052565b81601f82011215610099578035906001600160401b0382116104a6576040519261090c601f8401601f1916602001856108b7565b8284526020838301011161009957816000926020809301838601378301015290565b60005b8381106109415750506000910152565b8181015183820152602001610931565b9060209161096a8151809281855285808601910161092e565b601f01601f1916010190565b9060058210156103c05752565b60058210156103c05752565b80548210156109ab576000526007602060002091020190600090565b634e487b7160e01b600052603260045260246000fd5b90600182811c921680156109f1575b60208310146109db57565b634e487b7160e01b600052602260045260246000fd5b91607f16916109d0565b9060405191826000825492610a0f846109c1565b908184526001948581169081600014610a7e5750600114610a3b575b5050610a39925003836108b7565b565b9093915060005260209081600020936000915b818310610a66575050610a3993508201013880610a2b565b85548884018501529485019487945091830191610a4e565b915050610a3994506020925060ff191682840152151560051b8201013880610a2b56fea2646970667358221220c0fc43fb339e99ad51dc4eba8b69385a28785914636afde6b9432a4ac386103a64736f6c63430008130033","opcodes":"PUSH1 0x80 DUP1 PUSH1 0x40 MSTORE CALLVALUE PUSH2 0x16 JUMPI PUSH2 0xAD7 SWAP1 DUP2 PUSH2 0x1C DUP3 CODECOPY RETURN JUMPDEST PUSH1 0x0 DUP1 REVERT INVALID PUSH1 0x80 PUSH1 0x40 MSTORE PUSH1 0x4 CALLDATASIZE LT ISZERO PUSH2 0x12 JUMPI PUSH1 0x0 DUP1 REVERT JUMPDEST PUSH1 0x0 CALLDATALOAD PUSH1 0xE0 SHR DUP1 PUSH4 0x6319D03E EQ PUSH2 0x739 JUMPI DUP1 PUSH4 0x63C99219 EQ PUSH2 0x9E JUMPI PUSH4 0xC3CEF20A EQ PUSH2 0x3D JUMPI PUSH1 0x0 DUP1 REVERT JUMPDEST CALLVALUE PUSH2 0x99 JUMPI PUSH1 0x20 CALLDATASIZE PUSH1 0x3 NOT ADD SLT PUSH2 0x99 JUMPI PUSH1 0x4 CALLDATALOAD PUSH1 0x1 PUSH1 0x1 PUSH1 0x40 SHL SUB DUP2 GT PUSH2 0x99 JUMPI PUSH2 0x86 PUSH1 0x20 PUSH2 0x73 DUP2 SWAP4 CALLDATASIZE SWAP1 PUSH1 0x4 ADD PUSH2 0x8D8 JUMP JUMPDEST DUP2 PUSH1 0x40 MLOAD SWAP4 DUP3 DUP6 DUP1 SWAP5 MLOAD SWAP4 DUP5 SWAP3 ADD PUSH2 0x92E JUMP JUMPDEST DUP2 ADD PUSH1 0x0 DUP2 MSTORE SUB ADD SWAP1 KECCAK256 SLOAD PUSH1 0x40 MLOAD SWAP1 DUP2 MSTORE RETURN JUMPDEST PUSH1 0x0 DUP1 REVERT JUMPDEST CALLVALUE PUSH2 0x99 JUMPI PUSH1 0xC0 CALLDATASIZE PUSH1 0x3 NOT ADD SLT PUSH2 0x99 JUMPI PUSH1 0x4 CALLDATALOAD PUSH1 0x1 PUSH1 0x1 PUSH1 0x40 SHL SUB DUP2 GT PUSH2 0x99 JUMPI PUSH2 0xCE SWAP1 CALLDATASIZE SWAP1 PUSH1 0x4 ADD PUSH2 0x8D8 JUMP JUMPDEST PUSH1 0x24 CALLDATALOAD PUSH1 0x1 PUSH1 0x1 PUSH1 0x40 SHL SUB DUP2 GT PUSH2 0x99 JUMPI PUSH2 0xED SWAP1 CALLDATASIZE SWAP1 PUSH1 0x4 ADD PUSH2 0x8D8 JUMP JUMPDEST PUSH1 0x44 CALLDATALOAD PUSH1 0x1 PUSH1 0x1 PUSH1 0x40 SHL SUB DUP2 GT PUSH2 0x99 JUMPI PUSH2 0x10C SWAP1 CALLDATASIZE SWAP1 PUSH1 0x4 ADD PUSH2 0x8D8 JUMP JUMPDEST SWAP2 PUSH1 0x64 CALLDATALOAD PUSH1 0x1 PUSH1 0x1 PUSH1 0x40 SHL SUB DUP2 GT PUSH2 0x99 JUMPI PUSH2 0x12C SWAP1 CALLDATASIZE SWAP1 PUSH1 0x4 ADD PUSH2 0x8D8 JUMP JUMPDEST PUSH1 0x5 PUSH1 0xA4 CALLDATALOAD LT ISZERO PUSH2 0x99 JUMPI PUSH1 0x40 MLOAD SWAP3 PUSH2 0x144 DUP5 PUSH2 0x89C JUMP JUMPDEST DUP3 DUP5 MSTORE PUSH1 0x20 DUP5 ADD MSTORE DUP4 PUSH1 0x40 DUP5 ADD MSTORE PUSH1 0x60 DUP4 ADD MSTORE PUSH1 0x84 CALLDATALOAD PUSH1 0x80 DUP4 ADD MSTORE PUSH2 0x16E PUSH1 0xA4 CALLDATALOAD PUSH1 0xA0 DUP5 ADD PUSH2 0x983 JUMP JUMPDEST TIMESTAMP PUSH1 0xC0 DUP4 ADD MSTORE PUSH1 0x40 MLOAD PUSH1 0x20 DUP2 DUP4 MLOAD PUSH2 0x189 DUP2 DUP4 DUP6 DUP9 ADD PUSH2 0x92E JUMP JUMPDEST DUP2 ADD PUSH1 0x0 DUP2 MSTORE SUB ADD SWAP1 KECCAK256 DUP1 SLOAD PUSH9 0x10000000000000000 DUP2 LT ISZERO PUSH2 0x4A6 JUMPI PUSH2 0x1B5 SWAP2 PUSH1 0x1 DUP3 ADD DUP2 SSTORE PUSH2 0x98F JUMP JUMPDEST SWAP3 SWAP1 SWAP3 PUSH2 0x723 JUMPI DUP1 MLOAD DUP1 MLOAD SWAP1 PUSH1 0x1 PUSH1 0x1 PUSH1 0x40 SHL SUB DUP3 GT PUSH2 0x4A6 JUMPI DUP2 SWAP1 PUSH2 0x1DB DUP7 SLOAD PUSH2 0x9C1 JUMP JUMPDEST PUSH1 0x1F DUP2 GT PUSH2 0x6D3 JUMPI JUMPDEST POP PUSH1 0x20 SWAP1 PUSH1 0x1F DUP4 GT PUSH1 0x1 EQ PUSH2 0x667 JUMPI PUSH1 0x0 SWAP3 PUSH2 0x65C JUMPI JUMPDEST POP POP DUP2 PUSH1 0x1 SHL SWAP2 PUSH1 0x0 NOT SWAP1 PUSH1 0x3 SHL SHR NOT AND OR DUP4 SSTORE JUMPDEST PUSH1 0x20 DUP2 ADD MLOAD DUP1 MLOAD SWAP1 PUSH1 0x1 PUSH1 0x1 PUSH1 0x40 SHL SUB DUP3 GT PUSH2 0x4A6 JUMPI DUP2 SWAP1 PUSH2 0x235 PUSH1 0x1 DUP8 ADD SLOAD PUSH2 0x9C1 JUMP JUMPDEST PUSH1 0x1F DUP2 GT PUSH2 0x609 JUMPI JUMPDEST POP PUSH1 0x20 SWAP1 PUSH1 0x1F DUP4 GT PUSH1 0x1 EQ PUSH2 0x597 JUMPI PUSH1 0x0 SWAP3 PUSH2 0x58C JUMPI JUMPDEST POP POP DUP2 PUSH1 0x1 SHL SWAP2 PUSH1 0x0 NOT SWAP1 PUSH1 0x3 SHL SHR NOT AND OR PUSH1 0x1 DUP5 ADD SSTORE JUMPDEST PUSH1 0x40 DUP2 ADD MLOAD DUP1 MLOAD SWAP1 PUSH1 0x1 PUSH1 0x1 PUSH1 0x40 SHL SUB DUP3 GT PUSH2 0x4A6 JUMPI DUP2 SWAP1 PUSH2 0x292 PUSH1 0x2 DUP8 ADD SLOAD PUSH2 0x9C1 JUMP JUMPDEST PUSH1 0x1F DUP2 GT PUSH2 0x539 JUMPI JUMPDEST POP PUSH1 0x20 SWAP1 PUSH1 0x1F DUP4 GT PUSH1 0x1 EQ PUSH2 0x4C7 JUMPI PUSH1 0x0 SWAP3 PUSH2 0x4BC JUMPI JUMPDEST POP POP DUP2 PUSH1 0x1 SHL SWAP2 PUSH1 0x0 NOT SWAP1 PUSH1 0x3 SHL SHR NOT AND OR PUSH1 0x2 DUP5 ADD SSTORE JUMPDEST PUSH1 0x60 DUP2 ADD MLOAD DUP1 MLOAD SWAP1 PUSH1 0x1 PUSH1 0x1 PUSH1 0x40 SHL SUB DUP3 GT PUSH2 0x4A6 JUMPI DUP2 SWAP1 PUSH2 0x2EF PUSH1 0x3 DUP8 ADD SLOAD PUSH2 0x9C1 JUMP JUMPDEST PUSH1 0x1F DUP2 GT PUSH2 0x453 JUMPI JUMPDEST POP PUSH1 0x20 SWAP1 PUSH1 0x1F DUP4 GT PUSH1 0x1 EQ PUSH2 0x3E1 JUMPI PUSH1 0x0 SWAP3 PUSH2 0x3D6 JUMPI JUMPDEST POP POP DUP2 PUSH1 0x1 SHL SWAP2 PUSH1 0x0 NOT SWAP1 PUSH1 0x3 SHL SHR NOT AND OR PUSH1 0x3 DUP5 ADD SSTORE JUMPDEST PUSH1 0x80 DUP2 ADD MLOAD PUSH1 0x4 DUP5 ADD SSTORE PUSH1 0x5 DUP4 ADD SWAP4 PUSH1 0xA0 DUP3 ADD MLOAD SWAP4 PUSH1 0x5 DUP6 LT ISZERO PUSH2 0x3C0 JUMPI PUSH1 0x6 PUSH1 0xC0 PUSH2 0x3A6 SWAP5 PUSH32 0x4A9CEB9AED16E383A67E187387EF295DD0A19CCC1754331E3212EB8C1A1D72C7 SWAP9 PUSH2 0x398 SWAP9 PUSH1 0xFF DUP1 NOT DUP4 SLOAD AND SWAP2 AND OR SWAP1 SSTORE ADD MLOAD SWAP2 ADD SSTORE PUSH1 0x40 MLOAD SWAP4 DUP5 SWAP4 PUSH1 0x80 DUP6 MSTORE PUSH1 0x80 DUP6 ADD SWAP1 PUSH2 0x951 JUMP JUMPDEST SWAP1 DUP4 DUP3 SUB PUSH1 0x20 DUP6 ADD MSTORE PUSH2 0x951 JUMP JUMPDEST PUSH2 0x3B5 PUSH1 0x40 DUP4 ADD PUSH1 0xA4 CALLDATALOAD PUSH2 0x976 JUMP JUMPDEST TIMESTAMP PUSH1 0x60 DUP4 ADD MSTORE SUB SWAP1 LOG1 STOP JUMPDEST PUSH4 0x4E487B71 PUSH1 0xE0 SHL PUSH1 0x0 MSTORE PUSH1 0x21 PUSH1 0x4 MSTORE PUSH1 0x24 PUSH1 0x0 REVERT JUMPDEST ADD MLOAD SWAP1 POP DUP7 DUP1 PUSH2 0x30F JUMP JUMPDEST SWAP3 POP PUSH1 0x3 DUP7 ADD PUSH1 0x0 MSTORE PUSH1 0x20 PUSH1 0x0 KECCAK256 SWAP1 PUSH1 0x0 SWAP4 JUMPDEST PUSH1 0x1F NOT DUP5 AND DUP6 LT PUSH2 0x438 JUMPI PUSH1 0x1 SWAP5 POP DUP4 PUSH1 0x1F NOT DUP2 AND LT PUSH2 0x41F JUMPI JUMPDEST POP POP POP DUP2 SHL ADD PUSH1 0x3 DUP5 ADD SSTORE PUSH2 0x327 JUMP JUMPDEST ADD MLOAD PUSH1 0x0 NOT PUSH1 0xF8 DUP5 PUSH1 0x3 SHL AND SHR NOT AND SWAP1 SSTORE DUP7 DUP1 DUP1 PUSH2 0x40F JUMP JUMPDEST DUP2 DUP2 ADD MLOAD DUP4 SSTORE PUSH1 0x20 SWAP5 DUP6 ADD SWAP5 PUSH1 0x1 SWAP1 SWAP4 ADD SWAP3 SWAP1 SWAP2 ADD SWAP1 PUSH2 0x3F4 JUMP JUMPDEST SWAP1 SWAP2 POP PUSH1 0x3 DUP7 ADD PUSH1 0x0 MSTORE PUSH1 0x20 PUSH1 0x0 KECCAK256 PUSH1 0x1F DUP5 ADD PUSH1 0x5 SHR DUP2 ADD PUSH1 0x20 DUP6 LT PUSH2 0x49F JUMPI JUMPDEST SWAP1 DUP5 SWAP4 SWAP3 SWAP2 JUMPDEST PUSH1 0x1F DUP4 ADD PUSH1 0x5 SHR DUP3 ADD DUP2 LT PUSH2 0x490 JUMPI POP POP PUSH2 0x2F8 JUMP JUMPDEST PUSH1 0x0 DUP2 SSTORE DUP6 SWAP5 POP PUSH1 0x1 ADD PUSH2 0x47A JUMP JUMPDEST POP DUP1 PUSH2 0x474 JUMP JUMPDEST PUSH4 0x4E487B71 PUSH1 0xE0 SHL PUSH1 0x0 MSTORE PUSH1 0x41 PUSH1 0x4 MSTORE PUSH1 0x24 PUSH1 0x0 REVERT JUMPDEST ADD MLOAD SWAP1 POP DUP7 DUP1 PUSH2 0x2B2 JUMP JUMPDEST SWAP3 POP PUSH1 0x2 DUP7 ADD PUSH1 0x0 MSTORE PUSH1 0x20 PUSH1 0x0 KECCAK256 SWAP1 PUSH1 0x0 SWAP4 JUMPDEST PUSH1 0x1F NOT DUP5 AND DUP6 LT PUSH2 0x51E JUMPI PUSH1 0x1 SWAP5 POP DUP4 PUSH1 0x1F NOT DUP2 AND LT PUSH2 0x505 JUMPI JUMPDEST POP POP POP DUP2 SHL ADD PUSH1 0x2 DUP5 ADD SSTORE PUSH2 0x2CA JUMP JUMPDEST ADD MLOAD PUSH1 0x0 NOT PUSH1 0xF8 DUP5 PUSH1 0x3 SHL AND SHR NOT AND SWAP1 SSTORE DUP7 DUP1 DUP1 PUSH2 0x4F5 JUMP JUMPDEST DUP2 DUP2 ADD MLOAD DUP4 SSTORE PUSH1 0x20 SWAP5 DUP6 ADD SWAP5 PUSH1 0x1 SWAP1 SWAP4 ADD SWAP3 SWAP1 SWAP2 ADD SWAP1 PUSH2 0x4DA JUMP JUMPDEST SWAP1 SWAP2 POP PUSH1 0x2 DUP7 ADD PUSH1 0x0 MSTORE PUSH1 0x20 PUSH1 0x0 KECCAK256 PUSH1 0x1F DUP5 ADD PUSH1 0x5 SHR DUP2 ADD PUSH1 0x20 DUP6 LT PUSH2 0x585 JUMPI JUMPDEST SWAP1 DUP5 SWAP4 SWAP3 SWAP2 JUMPDEST PUSH1 0x1F DUP4 ADD PUSH1 0x5 SHR DUP3 ADD DUP2 LT PUSH2 0x576 JUMPI POP POP PUSH2 0x29B JUMP JUMPDEST PUSH1 0x0 DUP2 SSTORE DUP6 SWAP5 POP PUSH1 0x1 ADD PUSH2 0x560 JUMP JUMPDEST POP DUP1 PUSH2 0x55A JUMP JUMPDEST ADD MLOAD SWAP1 POP DUP7 DUP1 PUSH2 0x255 JUMP JUMPDEST SWAP3 POP PUSH1 0x1 DUP7 ADD PUSH1 0x0 MSTORE PUSH1 0x20 PUSH1 0x0 KECCAK256 SWAP1 PUSH1 0x0 SWAP4 JUMPDEST PUSH1 0x1F NOT DUP5 AND DUP6 LT PUSH2 0x5EE JUMPI PUSH1 0x1 SWAP5 POP DUP4 PUSH1 0x1F NOT DUP2 AND LT PUSH2 0x5D5 JUMPI JUMPDEST POP POP POP DUP2 SHL ADD PUSH1 0x1 DUP5 ADD SSTORE PUSH2 0x26D JUMP JUMPDEST ADD MLOAD PUSH1 0x0 NOT PUSH1 0xF8 DUP5 PUSH1 0x3 SHL AND SHR NOT AND SWAP1 SSTORE DUP7 DUP1 DUP1 PUSH2 0x5C5 JUMP JUMPDEST DUP2 DUP2 ADD MLOAD DUP4 SSTORE PUSH1 0x20 SWAP5 DUP6 ADD SWAP5 PUSH1 0x1 SWAP1 SWAP4 ADD SWAP3 SWAP1 SWAP2 ADD SWAP1 PUSH2 0x5AA JUMP JUMPDEST SWAP1 SWAP2 POP PUSH1 0x1 DUP7 ADD PUSH1 0x0 MSTORE PUSH1 0x20 PUSH1 0x0 KECCAK256 PUSH1 0x1F DUP5 ADD PUSH1 0x5 SHR DUP2 ADD PUSH1 0x20 DUP6 LT PUSH2 0x655 JUMPI JUMPDEST SWAP1 DUP5 SWAP4 SWAP3 SWAP2 JUMPDEST PUSH1 0x1F DUP4 ADD PUSH1 0x5 SHR DUP3 ADD DUP2 LT PUSH2 0x646 JUMPI POP POP PUSH2 0x23E JUMP JUMPDEST PUSH1 0x0 DUP2 SSTORE DUP6 SWAP5 POP PUSH1 0x1 ADD PUSH2 0x630 JUMP JUMPDEST POP DUP1 PUSH2 0x62A JUMP JUMPDEST ADD MLOAD SWAP1 POP DUP7 DUP1 PUSH2 0x1FB JUMP JUMPDEST SWAP3 POP DUP6 PUSH1 0x0 MSTORE PUSH1 0x20 PUSH1 0x0 KECCAK256 SWAP1 PUSH1 0x0 SWAP4 JUMPDEST PUSH1 0x1F NOT DUP5 AND DUP6 LT PUSH2 0x6B8 JUMPI PUSH1 0x1 SWAP5 POP DUP4 PUSH1 0x1F NOT DUP2 AND LT PUSH2 0x69F JUMPI JUMPDEST POP POP POP DUP2 SHL ADD DUP4 SSTORE PUSH2 0x210 JUMP JUMPDEST ADD MLOAD PUSH1 0x0 NOT PUSH1 0xF8 DUP5 PUSH1 0x3 SHL AND SHR NOT AND SWAP1 SSTORE DUP7 DUP1 DUP1 PUSH2 0x692 JUMP JUMPDEST DUP2 DUP2 ADD MLOAD DUP4 SSTORE PUSH1 0x20 SWAP5 DUP6 ADD SWAP5 PUSH1 0x1 SWAP1 SWAP4 ADD SWAP3 SWAP1 SWAP2 ADD SWAP1 PUSH2 0x677 JUMP JUMPDEST SWAP1 SWAP2 POP DUP6 PUSH1 0x0 MSTORE PUSH1 0x20 PUSH1 0x0 KECCAK256 PUSH1 0x1F DUP5 ADD PUSH1 0x5 SHR DUP2 ADD PUSH1 0x20 DUP6 LT PUSH2 0x71C JUMPI JUMPDEST SWAP1 DUP5 SWAP4 SWAP3 SWAP2 JUMPDEST PUSH1 0x1F DUP4 ADD PUSH1 0x5 SHR DUP3 ADD DUP2 LT PUSH2 0x70D JUMPI POP POP PUSH2 0x1E4 JUMP JUMPDEST PUSH1 0x0 DUP2 SSTORE DUP6 SWAP5 POP PUSH1 0x1 ADD PUSH2 0x6F7 JUMP JUMPDEST POP DUP1 PUSH2 0x6F1 JUMP JUMPDEST PUSH4 0x4E487B71 PUSH1 0xE0 SHL PUSH1 0x0 MSTORE PUSH1 0x0 PUSH1 0x4 MSTORE PUSH1 0x24 PUSH1 0x0 REVERT JUMPDEST CALLVALUE PUSH2 0x99 JUMPI PUSH1 0x40 CALLDATASIZE PUSH1 0x3 NOT ADD SLT PUSH2 0x99 JUMPI PUSH1 0x4 CALLDATALOAD PUSH1 0x1 PUSH1 0x1 PUSH1 0x40 SHL SUB DUP2 GT PUSH2 0x99 JUMPI PUSH2 0x76C PUSH2 0x798 SWAP2 CALLDATASIZE SWAP1 PUSH1 0x4 ADD PUSH2 0x8D8 JUMP JUMPDEST PUSH1 0x20 PUSH2 0x781 PUSH1 0x40 MLOAD SWAP3 DUP4 DUP2 MLOAD SWAP4 DUP5 SWAP3 ADD PUSH2 0x92E JUMP JUMPDEST DUP2 ADD SWAP1 PUSH1 0x0 DUP3 MSTORE PUSH1 0x20 DUP2 PUSH1 0x24 CALLDATALOAD SWAP4 SUB ADD SWAP1 KECCAK256 PUSH2 0x98F JUMP JUMPDEST POP PUSH1 0x40 MLOAD SWAP1 PUSH2 0x7A6 DUP3 PUSH2 0x89C JUMP JUMPDEST PUSH2 0x7AF DUP2 PUSH2 0x9FB JUMP JUMPDEST DUP3 MSTORE PUSH2 0x7BD PUSH1 0x1 DUP3 ADD PUSH2 0x9FB JUMP JUMPDEST SWAP1 PUSH1 0x20 DUP4 ADD SWAP2 DUP3 MSTORE PUSH2 0x7D1 PUSH1 0x2 DUP3 ADD PUSH2 0x9FB JUMP JUMPDEST PUSH1 0x40 DUP5 ADD SWAP1 DUP2 MSTORE PUSH2 0x7E4 PUSH1 0x3 DUP4 ADD PUSH2 0x9FB JUMP JUMPDEST SWAP4 PUSH1 0x60 DUP2 ADD SWAP5 DUP6 MSTORE PUSH1 0x4 DUP4 ADD SLOAD SWAP5 PUSH1 0x80 DUP3 ADD SWAP6 DUP7 MSTORE PUSH1 0x6 PUSH1 0xFF PUSH1 0x5 DUP7 ADD SLOAD AND SWAP5 PUSH2 0x812 PUSH1 0xA0 DUP6 ADD SWAP7 DUP8 PUSH2 0x983 JUMP JUMPDEST ADD SLOAD SWAP2 PUSH1 0xC0 DUP2 ADD SWAP3 DUP4 MSTORE MLOAD SWAP5 MLOAD SWAP3 MLOAD SWAP1 MLOAD SWAP6 MLOAD SWAP4 MLOAD SWAP1 PUSH1 0x5 DUP3 LT ISZERO PUSH2 0x3C0 JUMPI PUSH2 0x859 SWAP7 PUSH2 0x875 PUSH2 0x883 SWAP3 PUSH2 0x867 PUSH2 0x893 SWAP7 MLOAD SWAP8 PUSH1 0x40 MLOAD SWAP12 DUP13 SWAP12 PUSH1 0xE0 DUP14 MSTORE PUSH1 0xE0 DUP14 ADD SWAP1 PUSH2 0x951 JUMP JUMPDEST SWAP1 DUP12 DUP3 SUB PUSH1 0x20 DUP14 ADD MSTORE PUSH2 0x951 JUMP JUMPDEST SWAP1 DUP10 DUP3 SUB PUSH1 0x40 DUP12 ADD MSTORE PUSH2 0x951 JUMP JUMPDEST SWAP1 DUP8 DUP3 SUB PUSH1 0x60 DUP10 ADD MSTORE PUSH2 0x951 JUMP JUMPDEST SWAP4 PUSH1 0x80 DUP7 ADD MSTORE PUSH1 0xA0 DUP6 ADD SWAP1 PUSH2 0x976 JUMP JUMPDEST PUSH1 0xC0 DUP4 ADD MSTORE SUB SWAP1 RETURN JUMPDEST PUSH1 0xE0 DUP2 ADD SWAP1 DUP2 LT PUSH1 0x1 PUSH1 0x1 PUSH1 0x40 SHL SUB DUP3 GT OR PUSH2 0x4A6 JUMPI PUSH1 0x40 MSTORE JUMP JUMPDEST SWAP1 PUSH1 0x1F DUP1 NOT SWAP2 ADD AND DUP2 ADD SWAP1 DUP2 LT PUSH1 0x1 PUSH1 0x1 PUSH1 0x40 SHL SUB DUP3 GT OR PUSH2 0x4A6 JUMPI PUSH1 0x40 MSTORE JUMP JUMPDEST DUP2 PUSH1 0x1F DUP3 ADD SLT ISZERO PUSH2 0x99 JUMPI DUP1 CALLDATALOAD SWAP1 PUSH1 0x1 PUSH1 0x1 PUSH1 0x40 SHL SUB DUP3 GT PUSH2 0x4A6 JUMPI PUSH1 0x40 MLOAD SWAP3 PUSH2 0x90C PUSH1 0x1F DUP5 ADD PUSH1 0x1F NOT AND PUSH1 0x20 ADD DUP6 PUSH2 0x8B7 JUMP JUMPDEST DUP3 DUP5 MSTORE PUSH1 0x20 DUP4 DUP4 ADD ADD GT PUSH2 0x99 JUMPI DUP2 PUSH1 0x0 SWAP3 PUSH1 0x20 DUP1 SWAP4 ADD DUP4 DUP7 ADD CALLDATACOPY DUP4 ADD ADD MSTORE SWAP1 JUMP JUMPDEST PUSH1 0x0 JUMPDEST DUP4 DUP2 LT PUSH2 0x941 JUMPI POP POP PUSH1 0x0 SWAP2 ADD MSTORE JUMP JUMPDEST DUP2 DUP2 ADD MLOAD DUP4 DUP3 ADD MSTORE PUSH1 0x20 ADD PUSH2 0x931 JUMP JUMPDEST SWAP1 PUSH1 0x20 SWAP2 PUSH2 0x96A DUP2 MLOAD DUP1 SWAP3 DUP2 DUP6 MSTORE DUP6 DUP1 DUP7 ADD SWAP2 ADD PUSH2 0x92E JUMP JUMPDEST PUSH1 0x1F ADD PUSH1 0x1F NOT AND ADD ADD SWAP1 JUMP JUMPDEST SWAP1 PUSH1 0x5 DUP3 LT ISZERO PUSH2 0x3C0 JUMPI MSTORE JUMP JUMPDEST PUSH1 0x5 DUP3 LT ISZERO PUSH2 0x3C0 JUMPI MSTORE JUMP JUMPDEST DUP1 SLOAD DUP3 LT ISZERO PUSH2 0x9AB JUMPI PUSH1 0x0 MSTORE PUSH1 0x7 PUSH1 0x20 PUSH1 0x0 KECCAK256 SWAP2 MUL ADD SWAP1 PUSH1 0x0 SWAP1 JUMP JUMPDEST PUSH4 0x4E487B71 PUSH1 0xE0 SHL PUSH1 0x0 MSTORE PUSH1 0x32 PUSH1 0x4 MSTORE PUSH1 0x24 PUSH1 0x0 REVERT JUMPDEST SWAP1 PUSH1 0x1 DUP3 DUP2 SHR SWAP3 AND DUP1 ISZERO PUSH2 0x9F1 JUMPI JUMPDEST PUSH1 0x20 DUP4 LT EQ PUSH2 0x9DB JUMPI JUMP JUMPDEST PUSH4 0x4E487B71 PUSH1 0xE0 SHL PUSH1 0x0 MSTORE PUSH1 0x22 PUSH1 0x4 MSTORE PUSH1 0x24 PUSH1 0x0 REVERT JUMPDEST SWAP2 PUSH1 0x7F AND SWAP2 PUSH2 0x9D0 JUMP JUMPDEST SWAP1 PUSH1 0x40 MLOAD SWAP2 DUP3 PUSH1 0x0 DUP3 SLOAD SWAP3 PUSH2 0xA0F DUP5 PUSH2 0x9C1 JUMP JUMPDEST SWAP1 DUP2 DUP5 MSTORE PUSH1 0x1 SWAP5 DUP6 DUP2 AND SWAP1 DUP2 PUSH1 0x0 EQ PUSH2 0xA7E JUMPI POP PUSH1 0x1 EQ PUSH2 0xA3B JUMPI JUMPDEST POP POP PUSH2 0xA39 SWAP3 POP SUB DUP4 PUSH2 0x8B7 JUMP JUMPDEST JUMP JUMPDEST SWAP1 SWAP4 SWAP2 POP PUSH1 0x0 MSTORE PUSH1 0x20 SWAP1 DUP2 PUSH1 0x0 KECCAK256 SWAP4 PUSH1 0x0 SWAP2 JUMPDEST DUP2 DUP4 LT PUSH2 0xA66 JUMPI POP POP PUSH2 0xA39 SWAP4 POP DUP3 ADD ADD CODESIZE DUP1 PUSH2 0xA2B JUMP JUMPDEST DUP6 SLOAD DUP9 DUP5 ADD DUP6 ADD MSTORE SWAP5 DUP6 ADD SWAP5 DUP8 SWAP5 POP SWAP2 DUP4 ADD SWAP2 PUSH2 0xA4E JUMP JUMPDEST SWAP2 POP POP PUSH2 0xA39 SWAP5 POP PUSH1 0x20 SWAP3 POP PUSH1 0xFF NOT AND DUP3 DUP5 ADD MSTORE ISZERO ISZERO PUSH1 0x5 SHL DUP3 ADD ADD CODESIZE DUP1 PUSH2 0xA2B JUMP INVALID LOG2 PUSH5 0x6970667358 0x22 SLT KECCAK256 0xC0 0xFC NUMBER 0xFB CALLER SWAP15 SWAP10 0xAD MLOAD 0xDC 0x4E 0xBA DUP12 PUSH10 0x385A28785914636AFDE6 0xB9 NUMBER 0x2A 0x4A 0xC3 DUP7 LT GASPRICE PUSH5 0x736F6C6343 STOP ADDMOD SGT STOP CALLER "},"methodIdentifiers":{"addRecord(string,string,string,string,uint256,uint8)":"63c99219","getRecordByIndex(string,uint256)":"6319d03e","getRecordCount(string)":"c3cef20a"}}}}}