{
  "_format": "hh-sol-artifact-1",
  "contractName": "FoodTraceability",
  "sourceName": "contracts/Food.sol",
  "abi": [
    {
      "anonymous": false,
      "inputs": [
        {
          "indexed": false,
          "internalType": "string",
          "name": "batchId",
          "type": "string"
        },
        {
          "indexed": false,
          "internalType": "string",
          "name": "action",
          "type": "string"
        },
        {
          "indexed": false,
          "internalType": "enum FoodTraceability.Actor",
          "name": "actor",
          "type": "uint8"
        },
        {
          "indexed": false,
          "internalType": "uint256",
          "name": "timestamp",
          "type": "uint256"
        }
      ],
      "name": "RecordAdded",
      "type": "event"
    },
    {
      "inputs": [
        {
          "internalType": "string",
          "name": "_batchId",
          "type": "string"
        },
        {
          "internalType": "string",
          "name": "_foodName",
          "type": "string"
        },
        {
          "internalType": "string",
          "name": "_action",
          "type": "string"
        },
        {
          "internalType": "string",
          "name": "_aiResult",
          "type": "string"
        },
        {
          "internalType": "uint256",
          "name": "_confidence",
          "type": "uint256"
        },
        {
          "internalType": "enum FoodTraceability.Actor",
          "name": "_actor",
          "type": "uint8"
        }
      ],
      "name": "addRecord",
      "outputs": [],
      "stateMutability": "nonpayable",
      "type": "function"
    },
    {
      "inputs": [
        {
          "internalType": "string",
          "name": "_batchId",
          "type": "string"
        },
        {
          "internalType": "uint256",
          "name": "index",
          "type": "uint256"
        }
      ],
      "name": "getRecordByIndex",
      "outputs": [
        {
          "internalType": "string",
          "name": "",
          "type": "string"
        },
        {
          "internalType": "string",
          "name": "",
          "type": "string"
        },
        {
          "internalType": "string",
          "name": "",
          "type": "string"
        },
        {
          "internalType": "string",
          "name": "",
          "type": "string"
        },
        {
          "internalType": "uint256",
          "name": "",
          "type": "uint256"
        },
        {
          "internalType": "enum FoodTraceability.Actor",
          "name": "",
          "type": "uint8"
        },
        {
          "internalType": "uint256",
          "name": "",
          "type": "uint256"
        }
      ],
      "stateMutability": "view",
      "type": "function"
    },
    {
      "inputs": [
        {
          "internalType": "string",
          "name": "_batchId",
          "type": "string"
        }
      ],
      "name": "getRecordCount",
      "outputs": [
        {
          "internalType": "uint256",
          "name": "",
          "type": "uint256"
        }
      ],
      "stateMutability": "view",
      "type": "function"
    }
  ],
  "bytecode": "0x6080806040523461001657610ad7908161001c8239f35b600080fdfe6080604052600436101561001257600080fd5b60003560e01c80636319d03e1461073957806363c992191461009e5763c3cef20a1461003d57600080fd5b34610099576020366003190112610099576004356001600160401b038111610099576100866020610073819336906004016108d8565b816040519382858094519384920161092e565b8101600081520301902054604051908152f35b600080fd5b346100995760c0366003190112610099576004356001600160401b038111610099576100ce9036906004016108d8565b6024356001600160401b038111610099576100ed9036906004016108d8565b6044356001600160401b0381116100995761010c9036906004016108d8565b916064356001600160401b0381116100995761012c9036906004016108d8565b600560a435101561009957604051926101448461089c565b82845260208401528360408401526060830152608435608083015261016e60a43560a08401610983565b4260c08301526040516020818351610189818385880161092e565b810160008152030190208054680100000000000000008110156104a6576101b59160018201815561098f565b9290926107235780518051906001600160401b0382116104a65781906101db86546109c1565b601f81116106d3575b50602090601f83116001146106675760009261065c575b50508160011b916000199060031b1c19161783555b60208101518051906001600160401b0382116104a657819061023560018701546109c1565b601f8111610609575b50602090601f83116001146105975760009261058c575b50508160011b916000199060031b1c19161760018401555b60408101518051906001600160401b0382116104a657819061029260028701546109c1565b601f8111610539575b50602090601f83116001146104c7576000926104bc575b50508160011b916000199060031b1c19161760028401555b60608101518051906001600160401b0382116104a65781906102ef60038701546109c1565b601f8111610453575b50602090601f83116001146103e1576000926103d6575b50508160011b916000199060031b1c19161760038401555b60808101516004840155600583019360a08201519360058510156103c057600660c06103a6947f4a9ceb9aed16e383a67e187387ef295dd0a19ccc1754331e3212eb8c1a1d72c7986103989860ff801983541691161790550151910155604051938493608085526080850190610951565b908382036020850152610951565b6103b56040830160a435610976565b4260608301520390a1005b634e487b7160e01b600052602160045260246000fd5b01519050868061030f565b9250600386016000526020600020906000935b601f1984168510610438576001945083601f1981161061041f575b505050811b016003840155610327565b015160001960f88460031b161c1916905586808061040f565b818101518355602094850194600190930192909101906103f4565b909150600386016000526020600020601f840160051c81016020851061049f575b90849392915b601f830160051c820181106104905750506102f8565b6000815585945060010161047a565b5080610474565b634e487b7160e01b600052604160045260246000fd5b0151905086806102b2565b9250600286016000526020600020906000935b601f198416851061051e576001945083601f19811610610505575b505050811b0160028401556102ca565b015160001960f88460031b161c191690558680806104f5565b818101518355602094850194600190930192909101906104da565b909150600286016000526020600020601f840160051c810160208510610585575b90849392915b601f830160051c8201811061057657505061029b565b60008155859450600101610560565b508061055a565b015190508680610255565b9250600186016000526020600020906000935b601f19841685106105ee576001945083601f198116106105d5575b505050811b01600184015561026d565b015160001960f88460031b161c191690558680806105c5565b818101518355602094850194600190930192909101906105aa565b909150600186016000526020600020601f840160051c810160208510610655575b90849392915b601f830160051c8201811061064657505061023e565b60008155859450600101610630565b508061062a565b0151905086806101fb565b9250856000526020600020906000935b601f19841685106106b8576001945083601f1981161061069f575b505050811b018355610210565b015160001960f88460031b161c19169055868080610692565b81810151835560209485019460019093019290910190610677565b909150856000526020600020601f840160051c81016020851061071c575b90849392915b601f830160051c8201811061070d5750506101e4565b600081558594506001016106f7565b50806106f1565b634e487b7160e01b600052600060045260246000fd5b34610099576040366003190112610099576004356001600160401b0381116100995761076c6107989136906004016108d8565b6020610781604051928381519384920161092e565b81019060008252602081602435930301902061098f565b50604051906107a68261089c565b6107af816109fb565b82526107bd600182016109fb565b90602083019182526107d1600282016109fb565b604084019081526107e4600383016109fb565b936060810194855260048301549460808201958652600660ff6005860154169461081260a085019687610983565b01549160c0810192835251945192519051955193519060058210156103c05761085996610875610883926108676108939651976040519b8c9b60e08d5260e08d0190610951565b908b820360208d0152610951565b9089820360408b0152610951565b908782036060890152610951565b93608086015260a0850190610976565b60c08301520390f35b60e081019081106001600160401b038211176104a657604052565b90601f801991011681019081106001600160401b038211176104a657604052565b81601f82011215610099578035906001600160401b0382116104a6576040519261090c601f8401601f1916602001856108b7565b8284526020838301011161009957816000926020809301838601378301015290565b60005b8381106109415750506000910152565b8181015183820152602001610931565b9060209161096a8151809281855285808601910161092e565b601f01601f1916010190565b9060058210156103c05752565b60058210156103c05752565b80548210156109ab576000526007602060002091020190600090565b634e487b7160e01b600052603260045260246000fd5b90600182811c921680156109f1575b60208310146109db57565b634e487b7160e01b600052602260045260246000fd5b91607f16916109d0565b9060405191826000825492610a0f846109c1565b908184526001948581169081600014610a7e5750600114610a3b575b5050610a39925003836108b7565b565b9093915060005260209081600020936000915b818310610a66575050610a3993508201013880610a2b565b85548884018501529485019487945091830191610a4e565b915050610a3994506020925060ff191682840152151560051b8201013880610a2b56fea2646970667358221220c0fc43fb339e99ad51dc4eba8b69385a28785914636afde6b9432a4ac386103a64736f6c63430008130033",
  "linkReferences": {},
  "deployedLinkReferences": {}
}